:100000008CEF02F00000000000EF00F000000000A4
:0A0010000000000000000000F3D71C
:10001C000F0E0C6E470E0D6E0D2EFED70C2EFCD750
:06002C00000000001200BC
:0A003200210E0D6E0D2EFED71200F8
:06003C00000000001200AC
:100042000B840BAE2CEF00F0010E036E026A016A04
:0A005200006A0A360232FF0E1200A7
:0E005C00026A016A006A086A036A000E120056
:10006A002CBE02D08A9601D08A862CBC02D08A94F1
:10007A0001D08A842CBA02D08A9201D08A822CB802
:10008A0002D08A9001D08A801BB002D08A8801D01F
:10009A008A988A8ACEDF8A9A2CB602D08A9601D0AA
:1000AA008A862CB402D08A9401D08A842CB202D0D7
:1000BA008A9201D08A822CB002D08A9001D08A809A
:1000CA001BB002D08A8801D08A988A8AB2DF8A9ABB
:0C00DA001BA002D09EDF01D0A7DF1200A7
:0800E6000AAE029E000E12009A
:1000EE000C6A0E6A0250D8A490EF00F001C002F024
:1000FE0000C001F0006A0E860250D8A490EF00F006
:10010E0001C002F0016A0E960E880250D8B4A2EF1A
:10011E0000F00E50035ED8A4D8A0A7EF00F0D89040
:10012E0002BEACEF00F0003601360236032E97EF1A
:10013E0000F0A7EF00F0010E0C6E89DFAFEF00F0BC
:10014E00020E0C6E77DFAFEF00F0040E0C6EC4DF04
:02015E0012008D
:0C0160001B902BC02CF081DF1B801200D4
:10016C000B820BAEC0EF00F00368026801680068F8
:08017C000A360232FF0E1200E8
:100184000B800BAECEEF00F0026A0AAEFF0E026ED9
:0C019400016E006E0A360232FF0E1200EF
:1001A0000900F5CFE6FF0006FBE10106F9E11200C8
:1001B0000FD0800E266E19D0C00E266E16D0940E6B
:1001C000266E13D0D40E266E10D0800E266E0DD063
:1001D0002650010AEEE02650020AEEE02650030AFD
:1001E000EEE02650040AEEE0F0D72704006E265019
:1001F000002600C026F000C02CF037DF1B902A6AD2
:100200002A502824E96E000E2920EA6EEE520BE0F7
:100210002A502824E96E000E2920EA6EEECF2BF03A
:0A0220009FDF2A2AEDD71B80120091
:10022A00939A939893909392939493968A9A8A988E
:10023A008A968A948A928A90ECDEEBDEEADE8A82D9
:10024A008A808A8AF6DE8A9AE4DE8A8AF2DE8A9AC4
:10025A00E0DE8A8AEEDE8A9ADCDE8A908A8AE9DE23
:10026A008A9AD7DE8A8AE5DE8A9A8A928A868A8A70
:10027A00E0DE8A9ACEDE8A968A808A8ADADE8A9ACC
:10028A008A908A8AD6DE8A9AC4DE8A8AD2DE8A9AD4
:10029A008A808A8ACEDE8A9ABCDE8A908A8AC9DEF7
:1002AA008A9A8A868A848A828A808A8AC2DE8A9A14
:0602BA00B0DE1B80120003
:1002C0000B6A0C6A0A6A0350D8B4AAEF01F0028ED6
:1002D0008E0E035E03BE72EF01F0D8B472EF01F030
:1002E000AEEF01F0036C080E035CD8A089EF01F0BB
:1002F000036E013602C001F0026A080E035CD8A04A
:1003000089EF01F00136016A0350D8A4D89093EF29
:1003100001F00350D8B493EF01F0D89002320132CB
:10032000032E8DEF01F00BBC01A0A0EF01F0D8A0CF
:10033000A0EF01F0012AD8B4022A02BEBDEF01F0FD
:100340000AAEC2EF01F0021E011E012AD8B4022A31
:10035000C2EF01F0026A016AC2EF01F00B800BAE3E
:10036000C6EF01F0026A0AAEC6EF01F0FF0E026EA0
:10037000016E0A360232C6EF01F0010E0C6E02DF8A
:10038000C8EF01F0000E0C6EC8EF01F0FF0E0C6E0E
:0A0390000150006E0250016E1200D1
:10039A00086A096A100E0C6E0134083609360450D0
:1003AA00085E0550D8A0053C095ED8B007D00450B5
:1003BA0008260550D8B0053C0926D89000360136E3
:0603CA000C2EEAD7120020
:1003D0000050086E0150006E016A026A036A0B6ADF
:1003E0000C6A960E036E0A6A00C001F008C000F0A5
:0803F000086A026A7CDE1200BB
:1003F800086A096A000E0762036481EF02F002507E
:1004080006180A6E075003267E0ED8A012EF02F0D7
:10041800035ED8B085EF02F016EF02F0035ED8A0B5
:1004280089EF02F0028E068E02C00EF001C00BF0BA
:1004380000C00DF000500402F4CF0CF0015005028A
:10044800F4CF00F0F3CF08F00402F3500C26F45078
:100458000822000E00220D500502F3500C26F4501D
:100468000822000E002202500402F3500826F4501D
:10047800002202500502016A000E0122F3500026F4
:10048800F45001220D500602F3500826F4500022C1
:10049800026A000E012202220B500602F3500026C7
:1004A800F4500122000E02220E500602F3500126DB
:1004B800F450022202BE69EF02F008360036013617
:1004C80002360306D8B489EF02F07CEF02F0D88038
:1004D800800E08640030000E002201220222D8A0FB
:1004E8007CEF02F0023201320032034A85EF02F05B
:1004F8000AAE029E000E8BEF02F0010EABDD8BEF11
:1005080002F0020E2FDE8BEF02F0040E96DD1200D1
:10051800540E156E450E166E4D0E176E500E186E53
:100528003A0E196E1A6A928A110EC26E3A0EC16E8E
:10053800AA0EC06E76DE010E2C6E93DD0C0E2C6EAC
:1005480090DD010E266E010E276E150E286E000E28
:10055800296E2ADEC282C2A201D0FDD7C4CF01F023
:10056800006AC3500012000E01122EDF900E046EB6
:100578003E0E056E7A0E066E7E0E076E39DF9CDE25
:1005880000C024F001C025F0E80E046E030E056ECD
:1005980024C000F025C001F0FCDE300E002600C0AB
:1005A8001CF0640E046E000E056E24C000F025C019
:1005B80001F0EFDE0A0E046E000E056EEADE08C0DA
:1005C80000F009C001F0300E00241D6E0A0E046E02
:1005D800000E056E24C000F025C001F0DADE0A0E18
:1005E800046E000E056ED5DE08C000F009C001F0EB
:1005F800300E00241E6E2E0E1F6E0A0E046E000EA4
:10060800056E24C000F025C001F0C3DE08C000F06C
:1006180009C001F0300E0024206EDF0E216E430E5B
:10062800226E236A020E266E010E276E1C0E286E9D
:10063800000E296EB9DD030E0B6E080E0C6E770ED8
:100648000D6E0D2EFED70C2EFCD70B2EFAD782D7A7
:02065800FFD7CA
:020000040030CA
:0E000000000C1F1EFF8381FF0FC00FE00F409A
:00000001FF
