:040000006BEF00F0B2
:1000080000C015F0F5CF19F0F8CF16F0F7CF17F0BC
:10001800F6CF18F0F2A202D01B6AF292F0A003D039
:10002800010E1B6EF090F2A429D01B50FF0A26E0A7
:10003800F20E1A24F66E000EF76E000EF722000E6E
:10004800F86E000EF8220900F5CF83FF090E1A5C3E
:1000580002E21A2A01D01A6AD59E1B50000A03E14F
:10006800040ED56E05D01B50010A02E1020ED56EB2
:10007800DC0ED66E0B0ED76ED58ED59419C0F5FF53
:1000880016C0F8FF17C0F7FF18C0F6FF15C000F03C
:02009800110055
:08009A00F28EF28CD08E1200F0
:0800A200F284F184F28A1200DD
:1000AA00F292F288F290F28CF286F18C938093822B
:0200BA00120032
:1000BC000900F5CFE6FF0006FBE10106F9E11200AD
:0A00CC00060ED56EF294D58E1200D8
:1000D6001A6AFF0E1B6E0F0EC112F19E956A836A95
:0C00E600F2DFD8DFDBDFDEDFFFD7FFD763
:0A00F200FC60DAF266B6BEE0FEF62E
:020000040030CA
:0E000000000C1F1EFF8381FF0FC00FE00F409A
:00000001FF
