:040000006CEF00F0B1
:1000080000C015F0F5CF19F0F8CF16F0F7CF17F0BC
:10001800F6CF18F0F2A203D0010E1B6EF292F0A0F8
:1000280003D0020E1B6EF090F2A429D01B50000AD8
:1000380026E0F00E1A24F66E000EF76E000EF72278
:10004800000EF86E000EF8220900F5CF83FF090EA6
:100058001A5C02E21A2A01D01A6AD59E1B50010ABC
:1000680003E1040ED56E05D01B50020A02E1020E10
:10007800D56EDC0ED66E0B0ED76ED58EF29419C0E7
:10008800F5FF16C0F8FF17C0F7FF18C0F6FF15C038
:0400980000F0110063
:08009C00F28EF28CD08E1200EE
:0800A400F284F184F28A1200DB
:1000AC00F292F288F290F28CF286F18C9380938229
:0200BC00120030
:1000BE000900F5CFE6FF0006FBE10106F9E11200AB
:0A00CE00060ED56EF294D58E1200D6
:1000D8001A6A1B6A0F0EC112956A836AF4DFDADFA7
:0800E800DDDFE0DFFFD7FFD7E9
:0A00F000FC60DAF266B6BEE0FEF630
:020000040030CA
:0E000000000C1F1EFF8381FF0FC00FE00F409A
:00000001FF
